{
  "_format": "hh-sol-artifact-1",
  "contractName": "Contract",
  "sourceName": "contracts/Contract.sol",
  "abi": [
    {
      "inputs": [
        {
          "internalType": "address",
          "name": "_nftaddress",
          "type": "address"
        },
        {
          "internalType": "address payable",
          "name": "_seller",
          "type": "address"
        }
      ],
      "stateMutability": "nonpayable",
      "type": "constructor"
    },
    {
      "inputs": [
        {
          "internalType": "uint256",
          "name": "_nftID",
          "type": "uint256"
        },
        {
          "internalType": "uint256",
          "name": "_tokenID",
          "type": "uint256"
        }
      ],
      "name": "bought",
      "outputs": [],
      "stateMutability": "payable",
      "type": "function"
    },
    {
      "inputs": [
        {
          "internalType": "uint256",
          "name": "",
          "type": "uint256"
        }
      ],
      "name": "buyer",
      "outputs": [
        {
          "internalType": "address",
          "name": "",
          "type": "address"
        }
      ],
      "stateMutability": "view",
      "type": "function"
    },
    {
      "inputs": [
        {
          "internalType": "uint256",
          "name": "_nftID",
          "type": "uint256"
        }
      ],
      "name": "cancelSale",
      "outputs": [],
      "stateMutability": "nonpayable",
      "type": "function"
    },
    {
      "inputs": [
        {
          "internalType": "uint256",
          "name": "_nftID",
          "type": "uint256"
        },
        {
          "internalType": "address",
          "name": "_buyer",
          "type": "address"
        }
      ],
      "name": "declareBuyer",
      "outputs": [],
      "stateMutability": "nonpayable",
      "type": "function"
    },
    {
      "inputs": [],
      "name": "getBalance",
      "outputs": [
        {
          "internalType": "uint256",
          "name": "",
          "type": "uint256"
        }
      ],
      "stateMutability": "view",
      "type": "function"
    },
    {
      "inputs": [],
      "name": "index",
      "outputs": [
        {
          "internalType": "uint256",
          "name": "",
          "type": "uint256"
        }
      ],
      "stateMutability": "view",
      "type": "function"
    },
    {
      "inputs": [
        {
          "internalType": "uint256",
          "name": "",
          "type": "uint256"
        }
      ],
      "name": "isListed",
      "outputs": [
        {
          "internalType": "bool",
          "name": "",
          "type": "bool"
        }
      ],
      "stateMutability": "view",
      "type": "function"
    },
    {
      "inputs": [
        {
          "internalType": "uint256",
          "name": "_nftID",
          "type": "uint256"
        },
        {
          "internalType": "string",
          "name": "_amenities",
          "type": "string"
        },
        {
          "internalType": "uint256",
          "name": "_sqfoot",
          "type": "uint256"
        },
        {
          "internalType": "uint256",
          "name": "_bedno",
          "type": "uint256"
        },
        {
          "internalType": "string",
          "name": "_img",
          "type": "string"
        },
        {
          "internalType": "string",
          "name": "_descp",
          "type": "string"
        },
        {
          "internalType": "uint256",
          "name": "_purchasePrice",
          "type": "uint256"
        },
        {
          "internalType": "uint256",
          "name": "_tokenID",
          "type": "uint256"
        }
      ],
      "name": "list1",
      "outputs": [],
      "stateMutability": "nonpayable",
      "type": "function"
    },
    {
      "inputs": [
        {
          "internalType": "uint256",
          "name": "_nftID",
          "type": "uint256"
        },
        {
          "internalType": "string",
          "name": "_city",
          "type": "string"
        },
        {
          "internalType": "string",
          "name": "_country",
          "type": "string"
        },
        {
          "internalType": "string",
          "name": "_addline",
          "type": "string"
        }
      ],
      "name": "list2",
      "outputs": [],
      "stateMutability": "nonpayable",
      "type": "function"
    },
    {
      "inputs": [
        {
          "internalType": "uint256",
          "name": "_nftID",
          "type": "uint256"
        },
        {
          "internalType": "string",
          "name": "_name",
          "type": "string"
        },
        {
          "internalType": "string",
          "name": "_email",
          "type": "string"
        },
        {
          "internalType": "string",
          "name": "_proptype",
          "type": "string"
        }
      ],
      "name": "list3",
      "outputs": [],
      "stateMutability": "nonpayable",
      "type": "function"
    },
    {
      "inputs": [
        {
          "internalType": "uint256",
          "name": "_nftID",
          "type": "uint256"
        }
      ],
      "name": "listed",
      "outputs": [
        {
          "internalType": "bool",
          "name": "",
          "type": "bool"
        }
      ],
      "stateMutability": "view",
      "type": "function"
    },
    {
      "inputs": [
        {
          "internalType": "uint256",
          "name": "_nftID",
          "type": "uint256"
        }
      ],
      "name": "meta1",
      "outputs": [
        {
          "internalType": "string",
          "name": "",
          "type": "string"
        },
        {
          "internalType": "uint256",
          "name": "",
          "type": "uint256"
        },
        {
          "internalType": "uint256",
          "name": "",
          "type": "uint256"
        },
        {
          "internalType": "string",
          "name": "",
          "type": "string"
        },
        {
          "internalType": "string",
          "name": "",
          "type": "string"
        }
      ],
      "stateMutability": "view",
      "type": "function"
    },
    {
      "inputs": [
        {
          "internalType": "uint256",
          "name": "_nftID",
          "type": "uint256"
        }
      ],
      "name": "meta2",
      "outputs": [
        {
          "internalType": "string",
          "name": "",
          "type": "string"
        },
        {
          "internalType": "string",
          "name": "",
          "type": "string"
        },
        {
          "internalType": "string",
          "name": "",
          "type": "string"
        }
      ],
      "stateMutability": "view",
      "type": "function"
    },
    {
      "inputs": [
        {
          "internalType": "uint256",
          "name": "_nftID",
          "type": "uint256"
        }
      ],
      "name": "meta3",
      "outputs": [
        {
          "internalType": "string",
          "name": "",
          "type": "string"
        },
        {
          "internalType": "string",
          "name": "",
          "type": "string"
        },
        {
          "internalType": "string",
          "name": "",
          "type": "string"
        }
      ],
      "stateMutability": "view",
      "type": "function"
    },
    {
      "inputs": [
        {
          "internalType": "uint256",
          "name": "",
          "type": "uint256"
        }
      ],
      "name": "metadata",
      "outputs": [
        {
          "internalType": "string",
          "name": "name",
          "type": "string"
        },
        {
          "internalType": "string",
          "name": "email",
          "type": "string"
        },
        {
          "internalType": "string",
          "name": "phoneno",
          "type": "string"
        },
        {
          "components": [
            {
              "internalType": "string",
              "name": "city",
              "type": "string"
            },
            {
              "internalType": "string",
              "name": "country",
              "type": "string"
            },
            {
              "internalType": "string",
              "name": "addline",
              "type": "string"
            }
          ],
          "internalType": "struct Contract.adds",
          "name": "adds",
          "type": "tuple"
        },
        {
          "internalType": "string",
          "name": "proptype",
          "type": "string"
        },
        {
          "internalType": "string",
          "name": "amenities",
          "type": "string"
        },
        {
          "internalType": "uint256",
          "name": "sqfoot",
          "type": "uint256"
        },
        {
          "internalType": "uint256",
          "name": "bedno",
          "type": "uint256"
        },
        {
          "internalType": "string",
          "name": "img",
          "type": "string"
        },
        {
          "internalType": "string",
          "name": "descp",
          "type": "string"
        }
      ],
      "stateMutability": "view",
      "type": "function"
    },
    {
      "inputs": [],
      "name": "nftaddress",
      "outputs": [
        {
          "internalType": "address",
          "name": "",
          "type": "address"
        }
      ],
      "stateMutability": "view",
      "type": "function"
    },
    {
      "inputs": [
        {
          "internalType": "uint256",
          "name": "_nftID",
          "type": "uint256"
        }
      ],
      "name": "pr",
      "outputs": [
        {
          "internalType": "uint256",
          "name": "",
          "type": "uint256"
        }
      ],
      "stateMutability": "view",
      "type": "function"
    },
    {
      "inputs": [
        {
          "internalType": "uint256",
          "name": "",
          "type": "uint256"
        }
      ],
      "name": "purchasePrice",
      "outputs": [
        {
          "internalType": "uint256",
          "name": "",
          "type": "uint256"
        }
      ],
      "stateMutability": "view",
      "type": "function"
    },
    {
      "inputs": [
        {
          "internalType": "uint256",
          "name": "_nftID",
          "type": "uint256"
        }
      ],
      "name": "retprice",
      "outputs": [
        {
          "internalType": "uint256",
          "name": "",
          "type": "uint256"
        }
      ],
      "stateMutability": "view",
      "type": "function"
    },
    {
      "inputs": [],
      "name": "seller",
      "outputs": [
        {
          "internalType": "address payable",
          "name": "",
          "type": "address"
        }
      ],
      "stateMutability": "view",
      "type": "function"
    },
    {
      "inputs": [],
      "name": "store",
      "outputs": [
        {
          "internalType": "uint256",
          "name": "",
          "type": "uint256"
        }
      ],
      "stateMutability": "view",
      "type": "function"
    },
    {
      "stateMutability": "payable",
      "type": "receive"
    }
  ],
  "bytecode": "0x608060405260006005553480156200001657600080fd5b50604051620029ea380380620029ea83398181016040528101906200003c919062000174565b816000806101000a81548173ffffffffffffffffffffffffffffffffffffffff021916908373ffffffffffffffffffffffffffffffffffffffff16021790555080600160006101000a81548173ffffffffffffffffffffffffffffffffffffffff021916908373ffffffffffffffffffffffffffffffffffffffff1602179055505050620001bb565b600080fd5b600073ffffffffffffffffffffffffffffffffffffffff82169050919050565b6000620000f782620000ca565b9050919050565b6200010981620000ea565b81146200011557600080fd5b50565b6000815190506200012981620000fe565b92915050565b60006200013c82620000ca565b9050919050565b6200014e816200012f565b81146200015a57600080fd5b50565b6000815190506200016e8162000143565b92915050565b600080604083850312156200018e576200018d620000c5565b5b60006200019e8582860162000118565b9250506020620001b1858286016200015d565b9150509250929050565b61281f80620001cb6000396000f3fe60806040526004361061012e5760003560e01c806355f26f9f116100ab578063c5be388a1161006f578063c5be388a1461042b578063e3684e3914610454578063e82dcf211461049a578063e85d826d146104d7578063fa69f7d214610514578063fcce48831461053057610135565b806355f26f9f1461033257806377fbc4ae1461035b578063975057e714610398578063bd94b005146103c3578063c17dca22146103ec57610135565b80632827e5bb116100f25780632827e5bb1461021f578063297016b11461024a5780632986c0e51461028b57806344c59256146102b65780634dd4acaf146102f557610135565b8063039146e81461013a57806304c312511461016357806308551a53146101a057806312065fe0146101cb5780631d947b8a146101f657610135565b3661013557005b600080fd5b34801561014657600080fd5b50610161600480360381019061015c9190611b73565b61056d565b005b34801561016f57600080fd5b5061018a60048036038101906101859190611c2e565b6105e8565b6040516101979190611c76565b60405180910390f35b3480156101ac57600080fd5b506101b5610612565b6040516101c29190611cd2565b60405180910390f35b3480156101d757600080fd5b506101e0610638565b6040516101ed9190611cfc565b60405180910390f35b34801561020257600080fd5b5061021d60048036038101906102189190611d17565b610640565b005b34801561022b57600080fd5b506102346107fb565b6040516102419190611e42565b60405180910390f35b34801561025657600080fd5b50610271600480360381019061026c9190611c2e565b61081f565b604051610282959493929190611edc565b60405180910390f35b34801561029757600080fd5b506102a0610a4e565b6040516102ad9190611cfc565b60405180910390f35b3480156102c257600080fd5b506102dd60048036038101906102d89190611c2e565b610a54565b6040516102ec93929190611f44565b60405180910390f35b34801561030157600080fd5b5061031c60048036038101906103179190611c2e565b610c55565b6040516103299190611e42565b60405180910390f35b34801561033e57600080fd5b5061035960048036038101906103549190611b73565b610c88565b005b34801561036757600080fd5b50610382600480360381019061037d9190611c2e565b610cfa565b60405161038f9190611cfc565b60405180910390f35b3480156103a457600080fd5b506103ad610d12565b6040516103ba9190611cfc565b60405180910390f35b3480156103cf57600080fd5b506103ea60048036038101906103e59190611c2e565b610d1c565b005b3480156103f857600080fd5b50610413600480360381019061040e9190611c2e565b610eec565b60405161042293929190611f44565b60405180910390f35b34801561043757600080fd5b50610452600480360381019061044d9190611fbc565b6110e4565b005b34801561046057600080fd5b5061047b60048036038101906104769190611c2e565b61113a565b6040516104919a999897969594939291906120a4565b60405180910390f35b3480156104a657600080fd5b506104c160048036038101906104bc9190611c2e565b611706565b6040516104ce9190611cfc565b60405180910390f35b3480156104e357600080fd5b506104fe60048036038101906104f99190611c2e565b611723565b60405161050b9190611cfc565b60405180910390f35b61052e60048036038101906105299190612178565b611740565b005b34801561053c57600080fd5b5061055760048036038101906105529190611c2e565b6119c3565b6040516105649190611c76565b60405180910390f35b8260066000868152602001908152602001600020600301600001908161059391906123c4565b50816006600086815260200190815260200160002060030160010190816105ba91906123c4565b50806006600086815260200190815260200160002060030160020190816105e191906123c4565b5050505050565b60006004600083815260200190815260200160002060009054906101000a900460ff169050919050565b600160009054906101000a900473ffffffffffffffffffffffffffffffffffffffff1681565b600047905090565b60008054906101000a900473ffffffffffffffffffffffffffffffffffffffff1673ffffffffffffffffffffffffffffffffffffffff166323b872dd600160009054906101000a900473ffffffffffffffffffffffffffffffffffffffff1630846040518463ffffffff1660e01b81526004016106bf939291906124eb565b600060405180830381600087803b1580156106d957600080fd5b505af11580156106ed573d6000803e3d6000fd5b5050505081600360008a8152602001908152602001600020819055506001600460008a815260200190815260200160002060006101000a81548160ff02191690831515021790555086600660008a8152602001908152602001600020600701908161075891906123c4565b5085600660008a81526020019081526020016000206008018190555084600660008a81526020019081526020016000206009018190555083600660008a8152602001908152602001600020600a0190816107b291906123c4565b5082600660008a8152602001908152602001600020600b0190816107d691906123c4565b506001600560008282546107ea9190612551565b925050819055505050505050505050565b60008054906101000a900473ffffffffffffffffffffffffffffffffffffffff1681565b60606000806060806006600087815260200190815260200160002060070160066000888152602001908152602001600020600801546006600089815260200190815260200160002060090154600660008a8152602001908152602001600020600a01600660008b8152602001908152602001600020600b018480546108a3906121e7565b80601f01602080910402602001604051908101604052809291908181526020018280546108cf906121e7565b801561091c5780601f106108f15761010080835404028352916020019161091c565b820191906000526020600020905b8154815290600101906020018083116108ff57829003601f168201915b5050505050945081805461092f906121e7565b80601f016020809104026020016040519081016040528092919081815260200182805461095b906121e7565b80156109a85780601f1061097d576101008083540402835291602001916109a8565b820191906000526020600020905b81548152906001019060200180831161098b57829003601f168201915b505050505091508080546109bb906121e7565b80601f01602080910402602001604051908101604052809291908181526020018280546109e7906121e7565b8015610a345780601f10610a0957610100808354040283529160200191610a34565b820191906000526020600020905b815481529060010190602001808311610a1757829003601f168201915b505050505090509450945094509450945091939590929450565b60055481565b6060806060600660008581526020019081526020016000206003016000016006600086815260200190815260200160002060030160010160066000878152602001908152602001600020600301600201828054610ab0906121e7565b80601f0160208091040260200160405190810160405280929190818152602001828054610adc906121e7565b8015610b295780601f10610afe57610100808354040283529160200191610b29565b820191906000526020600020905b815481529060010190602001808311610b0c57829003601f168201915b50505050509250818054610b3c906121e7565b80601f0160208091040260200160405190810160405280929190818152602001828054610b68906121e7565b8015610bb55780601f10610b8a57610100808354040283529160200191610bb5565b820191906000526020600020905b815481529060010190602001808311610b9857829003601f168201915b50505050509150808054610bc8906121e7565b80601f0160208091040260200160405190810160405280929190818152602001828054610bf4906121e7565b8015610c415780601f10610c1657610100808354040283529160200191610c41565b820191906000526020600020905b815481529060010190602001808311610c2457829003601f168201915b505050505090509250925092509193909250565b60026020528060005260406000206000915054906101000a900473ffffffffffffffffffffffffffffffffffffffff1681565b82600660008681526020019081526020016000206000019081610cab91906123c4565b5081600660008681526020019081526020016000206001019081610ccf91906123c4565b5080600660008681526020019081526020016000206006019081610cf391906123c4565b5050505050565b60036020528060005260406000206000915090505481565b6000600554905090565b600160009054906101000a900473ffffffffffffffffffffffffffffffffffffffff1673ffffffffffffffffffffffffffffffffffffffff163373ffffffffffffffffffffffffffffffffffffffff1614610dac576040517f08c379a0000000000000000000000000000000000000000000000000000000008152600401610da3906125d1565b60405180910390fd5b6004600082815260200190815260200160002060009054906101000a900460ff16610e0c576040517f08c379a0000000000000000000000000000000000000000000000000000000008152600401610e039061263d565b60405180910390fd5b60008054906101000a900473ffffffffffffffffffffffffffffffffffffffff1673ffffffffffffffffffffffffffffffffffffffff166323b872dd30600160009054906101000a900473ffffffffffffffffffffffffffffffffffffffff16846040518463ffffffff1660e01b8152600401610e8b9392919061265d565b600060405180830381600087803b158015610ea557600080fd5b505af1158015610eb9573d6000803e3d6000fd5b5050505060006004600083815260200190815260200160002060006101000a81548160ff02191690831515021790555050565b6060806060600660008581526020019081526020016000206000016006600086815260200190815260200160002060010160066000878152602001908152602001600020600601828054610f3f906121e7565b80601f0160208091040260200160405190810160405280929190818152602001828054610f6b906121e7565b8015610fb85780601f10610f8d57610100808354040283529160200191610fb8565b820191906000526020600020905b815481529060010190602001808311610f9b57829003601f168201915b50505050509250818054610fcb906121e7565b80601f0160208091040260200160405190810160405280929190818152602001828054610ff7906121e7565b80156110445780601f1061101957610100808354040283529160200191611044565b820191906000526020600020905b81548152906001019060200180831161102757829003601f168201915b50505050509150808054611057906121e7565b80601f0160208091040260200160405190810160405280929190818152602001828054611083906121e7565b80156110d05780601f106110a5576101008083540402835291602001916110d0565b820191906000526020600020905b8154815290600101906020018083116110b357829003601f168201915b505050505090509250925092509193909250565b806002600084815260200190815260200160002060006101000a81548173ffffffffffffffffffffffffffffffffffffffff021916908373ffffffffffffffffffffffffffffffffffffffff1602179055505050565b600660205280600052604060002060009150905080600001805461115d906121e7565b80601f0160208091040260200160405190810160405280929190818152602001828054611189906121e7565b80156111d65780601f106111ab576101008083540402835291602001916111d6565b820191906000526020600020905b8154815290600101906020018083116111b957829003601f168201915b5050505050908060010180546111eb906121e7565b80601f0160208091040260200160405190810160405280929190818152602001828054611217906121e7565b80156112645780601f1061123957610100808354040283529160200191611264565b820191906000526020600020905b81548152906001019060200180831161124757829003601f168201915b505050505090806002018054611279906121e7565b80601f01602080910402602001604051908101604052809291908181526020018280546112a5906121e7565b80156112f25780601f106112c7576101008083540402835291602001916112f2565b820191906000526020600020905b8154815290600101906020018083116112d557829003601f168201915b50505050509080600301604051806060016040529081600082018054611317906121e7565b80601f0160208091040260200160405190810160405280929190818152602001828054611343906121e7565b80156113905780601f1061136557610100808354040283529160200191611390565b820191906000526020600020905b81548152906001019060200180831161137357829003601f168201915b505050505081526020016001820180546113a9906121e7565b80601f01602080910402602001604051908101604052809291908181526020018280546113d5906121e7565b80156114225780601f106113f757610100808354040283529160200191611422565b820191906000526020600020905b81548152906001019060200180831161140557829003601f168201915b5050505050815260200160028201805461143b906121e7565b80601f0160208091040260200160405190810160405280929190818152602001828054611467906121e7565b80156114b45780601f10611489576101008083540402835291602001916114b4565b820191906000526020600020905b81548152906001019060200180831161149757829003601f168201915b505050505081525050908060060180546114cd906121e7565b80601f01602080910402602001604051908101604052809291908181526020018280546114f9906121e7565b80156115465780601f1061151b57610100808354040283529160200191611546565b820191906000526020600020905b81548152906001019060200180831161152957829003601f168201915b50505050509080600701805461155b906121e7565b80601f0160208091040260200160405190810160405280929190818152602001828054611587906121e7565b80156115d45780601f106115a9576101008083540402835291602001916115d4565b820191906000526020600020905b8154815290600101906020018083116115b757829003601f168201915b50505050509080600801549080600901549080600a0180546115f5906121e7565b80601f0160208091040260200160405190810160405280929190818152602001828054611621906121e7565b801561166e5780601f106116435761010080835404028352916020019161166e565b820191906000526020600020905b81548152906001019060200180831161165157829003601f168201915b50505050509080600b018054611683906121e7565b80601f01602080910402602001604051908101604052809291908181526020018280546116af906121e7565b80156116fc5780601f106116d1576101008083540402835291602001916116fc565b820191906000526020600020905b8154815290600101906020018083116116df57829003601f168201915b505050505090508a565b600060036000838152602001908152602001600020549050919050565b600060036000838152602001908152602001600020549050919050565b816002600082815260200190815260200160002060009054906101000a900473ffffffffffffffffffffffffffffffffffffffff1673ffffffffffffffffffffffffffffffffffffffff163373ffffffffffffffffffffffffffffffffffffffff16146117e2576040517f08c379a00000000000000000000000000000000000000000000000000000000081526004016117d9906126e0565b60405180910390fd5b6003600084815260200190815260200160002054341461180157600080fd5b6000600160009054906101000a900473ffffffffffffffffffffffffffffffffffffffff1673ffffffffffffffffffffffffffffffffffffffff164760405161184990612731565b60006040518083038185875af1925050503d8060008114611886576040519150601f19603f3d011682016040523d82523d6000602084013e61188b565b606091505b50509050806118cf576040517f08c379a00000000000000000000000000000000000000000000000000000000081526004016118c690612792565b60405180910390fd5b60008054906101000a900473ffffffffffffffffffffffffffffffffffffffff1673ffffffffffffffffffffffffffffffffffffffff166323b872dd306002600088815260200190815260200160002060009054906101000a900473ffffffffffffffffffffffffffffffffffffffff16866040518463ffffffff1660e01b815260040161195f939291906127b2565b600060405180830381600087803b15801561197957600080fd5b505af115801561198d573d6000803e3d6000fd5b5050505060006004600086815260200190815260200160002060006101000a81548160ff02191690831515021790555050505050565b60046020528060005260406000206000915054906101000a900460ff1681565b6000604051905090565b600080fd5b600080fd5b6000819050919050565b611a0a816119f7565b8114611a1557600080fd5b50565b600081359050611a2781611a01565b92915050565b600080fd5b600080fd5b6000601f19601f8301169050919050565b7f4e487b7100000000000000000000000000000000000000000000000000000000600052604160045260246000fd5b611a8082611a37565b810181811067ffffffffffffffff82111715611a9f57611a9e611a48565b5b80604052505050565b6000611ab26119e3565b9050611abe8282611a77565b919050565b600067ffffffffffffffff821115611ade57611add611a48565b5b611ae782611a37565b9050602081019050919050565b82818337600083830152505050565b6000611b16611b1184611ac3565b611aa8565b905082815260208101848484011115611b3257611b31611a32565b5b611b3d848285611af4565b509392505050565b600082601f830112611b5a57611b59611a2d565b5b8135611b6a848260208601611b03565b91505092915050565b60008060008060808587031215611b8d57611b8c6119ed565b5b6000611b9b87828801611a18565b945050602085013567ffffffffffffffff811115611bbc57611bbb6119f2565b5b611bc887828801611b45565b935050604085013567ffffffffffffffff811115611be957611be86119f2565b5b611bf587828801611b45565b925050606085013567ffffffffffffffff811115611c1657611c156119f2565b5b611c2287828801611b45565b91505092959194509250565b600060208284031215611c4457611c436119ed565b5b6000611c5284828501611a18565b91505092915050565b60008115159050919050565b611c7081611c5b565b82525050565b6000602082019050611c8b6000830184611c67565b92915050565b600073ffffffffffffffffffffffffffffffffffffffff82169050919050565b6000611cbc82611c91565b9050919050565b611ccc81611cb1565b82525050565b6000602082019050611ce76000830184611cc3565b92915050565b611cf6816119f7565b82525050565b6000602082019050611d116000830184611ced565b92915050565b600080600080600080600080610100898b031215611d3857611d376119ed565b5b6000611d468b828c01611a18565b985050602089013567ffffffffffffffff811115611d6757611d666119f2565b5b611d738b828c01611b45565b9750506040611d848b828c01611a18565b9650506060611d958b828c01611a18565b955050608089013567ffffffffffffffff811115611db657611db56119f2565b5b611dc28b828c01611b45565b94505060a089013567ffffffffffffffff811115611de357611de26119f2565b5b611def8b828c01611b45565b93505060c0611e008b828c01611a18565b92505060e0611e118b828c01611a18565b9150509295985092959890939650565b6000611e2c82611c91565b9050919050565b611e3c81611e21565b82525050565b6000602082019050611e576000830184611e33565b92915050565b600081519050919050565b600082825260208201905092915050565b60005b83811015611e97578082015181840152602081019050611e7c565b60008484015250505050565b6000611eae82611e5d565b611eb88185611e68565b9350611ec8818560208601611e79565b611ed181611a37565b840191505092915050565b600060a0820190508181036000830152611ef68188611ea3565b9050611f056020830187611ced565b611f126040830186611ced565b8181036060830152611f248185611ea3565b90508181036080830152611f388184611ea3565b90509695505050505050565b60006060820190508181036000830152611f5e8186611ea3565b90508181036020830152611f728185611ea3565b90508181036040830152611f868184611ea3565b9050949350505050565b611f9981611e21565b8114611fa457600080fd5b50565b600081359050611fb681611f90565b92915050565b60008060408385031215611fd357611fd26119ed565b5b6000611fe185828601611a18565b9250506020611ff285828601611fa7565b9150509250929050565b600082825260208201905092915050565b600061201882611e5d565b6120228185611ffc565b9350612032818560208601611e79565b61203b81611a37565b840191505092915050565b60006060830160008301518482036000860152612063828261200d565b9150506020830151848203602086015261207d828261200d565b91505060408301518482036040860152612097828261200d565b9150508091505092915050565b60006101408201905081810360008301526120bf818d611ea3565b905081810360208301526120d3818c611ea3565b905081810360408301526120e7818b611ea3565b905081810360608301526120fb818a612046565b9050818103608083015261210f8189611ea3565b905081810360a08301526121238188611ea3565b905061213260c0830187611ced565b61213f60e0830186611ced565b8181036101008301526121528185611ea3565b90508181036101208301526121678184611ea3565b90509b9a5050505050505050505050565b6000806040838503121561218f5761218e6119ed565b5b600061219d85828601611a18565b92505060206121ae85828601611a18565b9150509250929050565b7f4e487b7100000000000000000000000000000000000000000000000000000000600052602260045260246000fd5b600060028204905060018216806121ff57607f821691505b602082108103612212576122116121b8565b5b50919050565b60008190508160005260206000209050919050565b60006020601f8301049050919050565b600082821b905092915050565b60006008830261227a7fffffffffffffffffffffffffffffffffffffffffffffffffffffffffffffffff8261223d565b612284868361223d565b95508019841693508086168417925050509392505050565b6000819050919050565b60006122c16122bc6122b7846119f7565b61229c565b6119f7565b9050919050565b6000819050919050565b6122db836122a6565b6122ef6122e7826122c8565b84845461224a565b825550505050565b600090565b6123046122f7565b61230f8184846122d2565b505050565b5b81811015612333576123286000826122fc565b600181019050612315565b5050565b601f8211156123785761234981612218565b6123528461222d565b81016020851015612361578190505b61237561236d8561222d565b830182612314565b50505b505050565b600082821c905092915050565b600061239b6000198460080261237d565b1980831691505092915050565b60006123b4838361238a565b9150826002028217905092915050565b6123cd82611e5d565b67ffffffffffffffff8111156123e6576123e5611a48565b5b6123f082546121e7565b6123fb828285612337565b600060209050601f83116001811461242e576000841561241c578287015190505b61242685826123a8565b86555061248e565b601f19841661243c86612218565b60005b828110156124645784890151825560018201915060208501945060208101905061243f565b86831015612481578489015161247d601f89168261238a565b8355505b6001600288020188555050505b505050505050565b60006124b16124ac6124a784611c91565b61229c565b611c91565b9050919050565b60006124c382612496565b9050919050565b60006124d5826124b8565b9050919050565b6124e5816124ca565b82525050565b600060608201905061250060008301866124dc565b61250d6020830185611e33565b61251a6040830184611ced565b949350505050565b7f4e487b7100000000000000000000000000000000000000000000000000000000600052601160045260246000fd5b600061255c826119f7565b9150612567836119f7565b925082820190508082111561257f5761257e612522565b5b92915050565b7f4f6e6c792073656c6c65722063616e2063616e63656c207468652073616c6500600082015250565b60006125bb601f83611e68565b91506125c682612585565b602082019050919050565b600060208201905081810360008301526125ea816125ae565b9050919050565b7f4e4654206973206e6f74206c697374656420666f722073616c65000000000000600082015250565b6000612627601a83611e68565b9150612632826125f1565b602082019050919050565b600060208201905081810360008301526126568161261a565b9050919050565b60006060820190506126726000830186611e33565b61267f60208301856124dc565b61268c6040830184611ced565b949350505050565b7f4f6e6c792062757965722063616e207573652074686973206d6574686f640000600082015250565b60006126ca601e83611e68565b91506126d582612694565b602082019050919050565b600060208201905081810360008301526126f9816126bd565b9050919050565b600081905092915050565b50565b600061271b600083612700565b91506127268261270b565b600082019050919050565b600061273c8261270e565b9150819050919050565b7f5472616e73666572204661696c65640000000000000000000000000000000000600082015250565b600061277c600f83611e68565b915061278782612746565b602082019050919050565b600060208201905081810360008301526127ab8161276f565b9050919050565b60006060820190506127c76000830186611e33565b6127d46020830185611e33565b6127e16040830184611ced565b94935050505056fea26469706673582212204c1aac9d97e8837b0e3a39017a76926ad0d7c16888122910bc4e6a325de6510764736f6c63430008110033",
  "linkReferences": {},
  "deployedLinkReferences": {}
}